:020000040800F2
:10000000981E002045010008F5200008F720000890
:10001000FB200008FF20000803210008000000006A
:1000200000000000000000000000000007210008A0
:1000300009210008000000000B2100080D21000824
:100040005F0100085F0100085F0100085F01000810
:100050005F0100085F0100085F0100085F01000800
:100060005F0100085F0100085F0100085F010008F0
:100070005F0100085F0100085F0100085F010008E0
:100080005F0100085F0100085F0100085F010008D0
:100090005F0100085F0100085F0100085F010008C0
:1000A0005F0100085F0100085F0100085F010008B0
:1000B0005F0100085F0100085F0100085F010008A0
:1000C0005F0100085F0100085F0100085F01000890
:1000D0005F0100085F0100083B2100085F01000884
:1000E0005F0100085F0100085F0100085F01000870
:1000F0005F0100085F0100085F0100085F01000860
:100100005F0100085F0100085F0100085F0100084F
:100110005F0100085F0100085F0100085F0100083F
:100120005F0100085F0100085F0100085F0100082F
:10013000DFF80CD004F0AAF9004800473915000890
:10014000981E00200648804706480047FEE7FEE765
:10015000FEE7FEE7FEE7FEE7FEE7FEE7FEE7FEE777
:1001600047020008310100080CB500200190009002
:100170006C48006840F480306A49086000BF6948F4
:10018000006800F4003000900198401C0190009835
:1001900018B90198B0F5A06FF1D16248006800F479
:1001A000003010B10120009001E000200090009884
:1001B000012843D15C48006840F010005A490860AB
:1001C0000846006820F0030008600846006840F018
:1001D0000200086053484068524948600846406839
:1001E00048600846406840F48060486008464068BF
:1001F00020F47C1048600846406840F4E8104860ED
:100200000846006840F08070086000BF45480068FC
:1002100000F000700028F9D04248406820F0030048
:10022000404948600846406840F00200486000BF0E
:100230003C48406800F00C000828F9D10CBD10B50E
:10024000FFF792FF10BD10B53648006840F001007E
:1002500034490860084640683449084031494860DC
:1002600008460068324908402E4908600846006880
:1002700020F4802008600846406820F4FE004860B2
:100280004FF41F008860FFF7DAFF4FF00060294944
:10029000086010BD10B5002100200022214B5B68D2
:1002A00003F00C0121B1042906D0082928D107E068
:1002B000214B224C236027E01F4B204C236023E07E
:1002C000184B5B6803F47010164B5B6803F48032C4
:1002D000022303EB904022B9194B4343174C236090
:1002E0000DE0104B5B6803F4003323B1144B434320
:1002F000124C236003E0104B4343104C236003E097
:100300000D4B0E4C236000BF00BF064B5B68C3F370
:1003100003130C4CE15C094B1B68CB40074C23607A
:1003200010BD000000100240002002400000FFF855
:10033000FFFFF6FE08ED00E000127A00000000204A
:1003400000093D000400002031490143314A116099
:10035000704770B5002100230F22C47804B32D4CE0
:10036000246804F4E064C4F5E064210AC1F10403E4
:10037000CA40447804FA03F1847814402143090107
:10038000254C0678A155047804F01F050124AC40E3
:1003900005786D11AD0005F1E025C5F8004109E0D3
:1003A000047804F01F050124AC401C4D067876113A
:1003B00045F8264070BD1A4A0A400243154B1B1FE0
:1003C0001A60704739B1134A121D12680243114B6B
:1003D0001B1D1A6006E00F4A121D126882430D4B66
:1003E0001B1D1A607047042808D14FF0E0210969ED
:1003F00041F004014FF0E022116107E04FF0E021ED
:10040000096921F004014FF0E022116170470000FA
:100410000000FA050CED00E000E400E080E100E0FF
:1004200080FFFF1F30B943F2DB028100A1F1C04120
:100430000A6005E043F2D2028100A1F1C0410A60E6
:100440006FF07042411C8900A1F1C0410A60810037
:10045000A1F1C041C1F80421704710280AD1182128
:100460004FF020421166402151664FF0FC319166F9
:10047000D16610E01821F74A116040214FF0204268
:10048000C2F884104FF0FC31F24A083211604FF08C
:100490002042C2F88C1070471820EE4920310860C5
:1004A00000200906C1F8A4004FF0FC30E9492831CA
:1004B0000860091D0860091D08607047D0E9011235
:1004C0001143C268114302691143426911438269B1
:1004D0001143C2691143026A1143426A1143826A9D
:1004E0001143C26A1143026B114302689200A2F1E8
:1004F000C0421160816808290BD101688900A1F10F
:10050000C041096841F0400201688900A1F1C04181
:100510000A60416B0968426B526841EA0211426B02
:10052000926841EA0221426B928941EA0241426BA0
:10053000128A41EA0251426B127D41EA0261426B2A
:10054000926911430268521C9200A2F1C0421160EC
:10055000C16AB1F5804F1BD1816B0968826B52680B
:1005600041EA0211826B926841EA0221826B128A8F
:1005700041EA0251826B127D41EA0261826B92690B
:10058000114302689200A2F1C042C2F8041107E0D0
:100590006FF0704201688900A1F1C041C1F80421E7
:1005A000704730B5002100220023446844F008045D
:1005B00085682C43C5682C4305692C43456944EA8A
:1005C0004524856944EA4531C4692468C5696D6874
:1005D00044EA0524C5692D8944EA0544C5692D7B93
:1005E00044EA0562046A2468056A6D6844EA0524E1
:1005F000056A2D8944EA0544056A2D7B44EA0563B2
:100600000468102C05D14FF020442166A266E366F1
:1006100008E0904C21604FF02044C4F888208D4CB5
:100620000C34236030BD016841F01001426841EA9A
:100630004221826841EA4231864A20321160C16813
:100640000968C268526841EA0221C268128941EA17
:100650000241C268127B41EA02617E4A283211607F
:10066000016909680269526841EA02210269128936
:1006700041EA02410269127B41EA0261754A2C3269
:100680001160416909684269526841EA0221426980
:10069000128941EA02414269127B41EA02614FF04C
:1006A0002042C2F8B0107047002101600221416071
:1006B00000218160C160016141618161C1610162AC
:1006C0004FF480514162490081620021C16201639F
:1006D0000F21426B1160426B5160FF21426B9160B0
:1006E0000F21426BD160426B1161426B516100215D
:1006F000426B91610F21826B1160826B5160FF210F
:10070000826B91600F21826BD160826B1161826B71
:1007100051610021826B91617047102101600021BD
:1007200041608160C160016141618161FC21C269F8
:100730001160C2695160C2699160C269D160026A88
:100740001160026A5160026A9160026AD16070476A
:100750000021016041608160FC21C2681160C268B3
:100760005160C2689160C268D1600269116002691B
:100770005160026991600269D16042691160426909
:100780005160426991604269D160704751B1820005
:10079000A2F1C042126842F001038200A2F1C042FD
:1007A000136009E08200A2F1C04212682A4B1A408D
:1007B0008300A3F1C0431A60704799B1102808D193
:1007C0004FF02042126E42F004024FF020431A66AE
:1007D0001DE0204A126842F004024FF02043C3F8A3
:1007E000802014E0102809D14FF02042126E1A4BDD
:1007F000DB1E1A404FF020431A6608E0154A1268C3
:10080000154BDB1E1A404FF02043C3F88020704781
:1008100048B110492031096841F004014FF02042ED
:10082000C2F8A01009E00B49203109680A4AD21E1B
:1008300011404FF02042C2F8A0107047B9B1102803
:100840000CD14FF02042126E42F040024FF0204394
:100850001A661FE0800000A0FEFF0F00724A1268B7
:1008600042F040024FF02043C3F8802012E01028ED
:1008700008D14FF02042126E6C4B1A404FF02043CB
:100880001A6607E0684A1268684B1A404FF0204326
:10089000C3F88020704701460020102903D14FF093
:1008A0002042506F02E0604A14321068704710B561
:1008B000F2B1102807D14FF020435B6E0B434FF08D
:1008C0002044636632E0B0F5807F08D1564B1B1D93
:1008D0001B680B434FF02044C4F8843026E0524B91
:1008E00024331B680B434FF02044C4F8A4301DE0B0
:1008F000102807D14FF020435B6E8B434FF020440C
:10090000636613E0B0F5807F08D1474B1B1D1B6861
:100910008B434FF02044C4F8843007E0424B24332B
:100920001B688B434FF02044C4F8A43010BD10B5B1
:10093000024600200023102A03D14FF02044636EAA
:1009400009E0B2F5807F03D1374C241D236802E013
:10095000354C2434236803EA01040CB1012000E083
:10096000002010BD102807D14FF02042526E8A435C
:100970004FF020435A6613E0B0F5807F08D12A4A31
:10098000121D12688A434FF02043C3F8842007E009
:10099000254A243212688A434FF02043C3F8A4202A
:1009A000704770B502460020002300240025102A5D
:1009B00003D14FF02046736E09E0B2F5807F03D17A
:1009C000194E361D336802E0174E2436336803EAA9
:1009D000010403EAD10514B10DB1012000E00020AB
:1009E00070BD102808D14FF02042526E22EAD10289
:1009F0004FF020435A6615E0B0F5807F09D10A4ACE
:100A0000121D126822EAD1024FF02043C3F884205D
:100A100008E0054A2432126822EAD1024FF020434E
:100A2000C3F8A42070470000800000A0BFFF0F00A3
:100A300010B50446CC48844208D10121042000F0BE
:100A40002DFB0021042000F029FB46E0C74884422A
:100A500008D10121082000F021FB0021082000F02E
:100A60001DFB3AE0C248844208D10121102000F069
:100A700015FB0021102000F011FB2EE0BD48844240
:100A800008D10121202000F009FB0021202000F0E6
:100A900005FB22E0B848844208D10121402000F043
:100AA000FDFA0021402000F0F9FA16E0B348844234
:100AB00008D10121802000F0F1FA0021802000F00F
:100AC000EDFA0AE0AE48844207D10121801500F01A
:100AD000E5FA0021A01500F0E1FA10BD10B50121E2
:100AE000084600F0DBFA0021012000F0D7FA10BD23
:100AF0002DE9F041024600250026002000230024B5
:100B0000002791F803C00CF00F0591F803C00CF01A
:100B1000100CBCF1000F03D091F802C04CEA05059F
:100B200091F800C0BCF1000F31D0146800202BE018
:100B30004FF0010C0CFA00F3B1F800C00CEA030608
:100B40009E4220D183004FF00F0C0CFA03F7BC43F8
:100B500005FA03FC4CEA040491F803C0BCF1280F29
:100B600006D14FF0010C0CFA00FCC2F814C00AE0E8
:100B700091F803C0BCF1480F05D14FF0010C0CFAFD
:100B800000FCC2F810C0401C0828D1D31460B1F892
:100B900000C0BCF1FF0F34DD546800202EE000F1EE
:100BA000080C4FF0010808FA0CF3B1F800C00CEA89
:100BB00003069E4221D183004FF00F0C0CFA03F77D
:100BC000BC4305FA03FC4CEA040491F803C0BCF1F1
:100BD000280F05D100F1080C08FA0CF8C2F81480AF
:100BE00091F803C0BCF1480F07D100F1080C4FF099
:100BF000010808FA0CF8C2F81080401C0828CED36F
:100C00005460BDE8F0814FF6FF71018002218170D0
:100C10000421C17070470246002093680B400BB15D
:100C2000012000E0002070470146886880B27047CC
:100C300002460020D3680B400BB1012000E00020E9
:100C400070470146C86880B27047016170474161D2
:100C500070470AB1016100E041617047C1607047AF
:100C60004FF480320A4382618161826182698269C4
:100C7000704702460020434B18684FF680731840B7
:100C800040EA021008433F4B186070473E49C86174
:100C90007047F0B50A46002300240021002500F02B
:100CA0000046B6F1004F02D1364EF16901E0354EF3
:100CB0007168C0F3034583B200F44016B6F5401FD7
:100CC00008D121F070612F4E766826F070662D4FA6
:100CD0007E6012E000F48016B6F5801F06D1032670
:100CE00006FA05F4A14341F0706106E0460D3601B5
:100CF00003FA06F6B14341F0706122B1460D3601A8
:100D000003FA06F6314300F00046B6F1004F02D177
:100D10001C4EF16101E01B4E7160F0BD30B5002248
:100D20008B071C0F0F2303FA04F2164B08338C10A9
:100D300053F824309343134C08348D1044F8253075
:100D400023468C1053F824308C07240F00FA04F447
:100D500023430C4C08348D1044F8253030BD0A492B
:100D6000DC3108607047000000080140000C0140C1
:100D7000001001400014014000180140001C014017
:100D8000002001400000014000002042DF480068D0
:100D900040F00100DD49086008464068DC49084031
:100DA000DA49486008460068DA490840D7490860CF
:100DB0000846006820F4802008600846406820F457
:100DC000FE0048604FF41F0088607047CF490968F3
:100DD00021F48031CD4A11601146096821F4802147
:100DE0001160B0F5803F03D0B0F5802F0ED106E042
:100DF000C649096841F48031C44A116007E0C3491B
:100E0000096841F4A021C14A116000E000BF00BFA1
:100E1000704710B501460022002300204A11012A24
:100E200002D1BA4C236806E0022A02D1B74C236AE9
:100E300001E0B64C636A01F01F02012494401C409B
:100E40000CB1012000E0002010BD38B5002000905A
:100E50000024002500BF3120FFF7DBFF0546009886
:100E6000401C00900098B0F5A06F01D0002DF2D08A
:100E70003120FFF7CEFF08B1012400E00024204616
:100E800038BD01460020A14A106820F0F80040EA71
:100E9000C10010607047A0490860704702460020FA
:100EA0009A4B586820F47C1042EA01031843974B90
:100EB0005860704798490866704701460020934A79
:100EC000506820F003000843506070478F48406826
:100ED00000F00C007047014600208C4A506820F05A
:100EE000F00008435060704701460020874A506870
:100EF00020F4E06008435060704701460020834AB8
:100F0000506820F4605040EAC1005060704729B139
:100F10007E4A527A02437D4B5A7204E07B4A527AEF
:100F200082437A4B5A7270477B49D83108607047C8
:100F300001460020754A506820F440400843506044
:100F400070470021714A20321170704A82F82010D7
:100F5000012802D004280AD104E001216B4A203282
:100F6000117005E00521694A2032117000E000BFD0
:100F700000BF70476949086070476449096A0143C6
:100F8000624A11627047654944390860704730B55C
:100F900000210022002400235C4D6D6805F00C0147
:100FA00021B1042905D0082923D105E05C4D056055
:100FB00022E05B4D05601FE0544D6D6805F4701232
:100FC000524D6D6805F48034022505EB92421CB940
:100FD000544D554305600BE04C4D6D6805F40035EC
:100FE0001DB1504D5543056002E04D4D5543056020
:100FF00002E04B4D056000BF00BF444D6D6805F039
:10100000F0010909484D6B5C0568DD4045603F4DC6
:101010006D6805F4E061090A434D6B5C4568DD408D
:1010200085603A4D6D6805F46051C90A3E4D6B5CB0
:101030004568DD40C560354D6D6805F44041890B5C
:101040003A4D6B5CC568B5FBF3F5056130BD29B160
:101050002E4A526902432D4B5A6104E02B4A5269D1
:1010600082432A4B5A61704729B1284A9269024348
:10107000264B9A6104E0254A92698243234B9A6188
:10108000704729B1214AD2690243204BDA6104E05A
:101090001E4AD26982431D4BDA61704729B11B4A4F
:1010A000D2680243194BDA6004E0184AD2688243DE
:1010B000164BDA60704729B1144A12690243134B88
:1010C0001A6104E0114A12698243104B1A61704799
:1010D00012494039086070470F49C86470470B498E
:1010E000C87170470948406A40F0807007494862FB
:1010F000704701460020054A92680A400AB1012063
:1011000000E00020704701498872704700100240DB
:101110000000FFF8FFFFF6FE00004242800442425A
:1011200000127A0000093D00140000202400002075
:1011300010B50446FB48844209D101218803FFF71A
:10114000ADFF00214FF48040FFF7A8FF32E0F648E2
:10115000844209D101214804FFF7ADFF00214FF47B
:101160000030FFF7A8FF25E0F048844209D10121B3
:101170008804FFF7A0FF00214FF48020FFF79BFFBA
:1011800018E0EB48844209D10121C804FFF793FF1E
:1011900000214FF40020FFF78EFF0BE0E54884426A
:1011A00008D101210805FFF786FF00214FF48010C8
:1011B000FFF781FF10BD2DE9F04786B005460E46CA
:1011C0000024A24600BFA1460027B08900B100BF9D
:1011D0002F462C8A4CF6FF700440F08804432C8282
:1011E000AC894EF6F3100440B08831890843718908
:1011F00008430443AC81AC8A4FF6FF400440B089F9
:101200000443AC8201A8FFF7C2FEC648874202D160
:10121000DDF810A001E0DDF80CA0A88900F4004082
:1012200040B10AEBCA0000EB0A1031684900B0FB7C
:10123000F1F807E00AEBCA0000EB0A1031688900F8
:10124000B0FBF1F86420B8FBF0F004012009642140
:1012500001FB1089A88900F4004040B1322000EB66
:10126000C900B0FBF1F000F00700044308E03220B1
:1012700000EB09106421B0FBF1F000F00F00044313
:101280002C8106B0BDE8F0874FF4165101600021B3
:101290008180C18001810C214181002181817047C1
:1012A00010B502460020108A4FF2FF0318400B8849
:1012B0004C8823438C882343CC88234318431082D3
:1012C00010BD0021018041808180C180704721B123
:1012D000828942F40052828104E082894DF6FF73D4
:1012E0001A4082817047F0B503460024002600258D
:1012F000002040F66A17B94200D100BF1846C1F37A
:10130000421401F01F06012707FA06F5012C01D14E
:101310000C3004E0022C01D1103000E014301AB17E
:1013200007682F43076002E00768AF430760F0BD1E
:101330001AB1838A0B43838202E0838A8B438382C0
:101340007047028A4FF6F0731A400282028A0A43FB
:101350000282704782894FF2FF731A40828182892C
:101360000A438281704721B1828942F00202828160
:1013700004E082894FF6FD731A4082817047028A29
:101380004FF6DF731A400282028A0A4302827047D4
:1013900021B1028A42F48042028204E0028A4BF6C2
:1013A000FF731A4002827047C1F3080282807047BF
:1013B00001468888C0F308007047818941F0010127
:1013C00081817047028BD2B20283028B42EA0122F2
:1013D00002837047028B02F47F420283028B0A432E
:1013E0000283704721B1828A42F02002828204E0A7
:1013F000828A4FF6DF731A408282704721B1828A57
:1014000042F01002828204E0828A4FF6EF731A40A3
:101410008282704721B1828A42F00802828204E00F
:10142000828A4FF6F7731A408282704721B182890F
:1014300042F40042828103E08289C2F30E0282817B
:10144000704721B1828A42F40062828204E0828A7B
:101450004FF2FF731A4082827047828A4FF6FB7305
:101460001A408282828A0A438282704721B1828A2C
:1014700042F00202828204E0828A4FF6FD731A4033
:101480008282704702460020B1F5007F00D100BF84
:1014900013880B400BB1012000E00020704701F4DD
:1014A0000072B2F5007F00D100BFCA4302807047CE
:1014B00070B50246002400230025002040F66A167D
:1014C000B14200D100BFC1F3421501F01F03012654
:1014D00006FA03F3012D02D19689334006E0022D6E
:1014E00002D1168A334001E0968A33400C1201265D
:1014F00006FA04F41688344013B10CB1012000E060
:10150000002070BD10B50022002340F66A14A142ED
:1015100000D100BF0A1201249440A3B2DC4304802E
:1015200010BD000000380140004400400048004069
:10153000004C004000500040CCB0CC4AD2E9001032
:1015400092684992479148902022C8490C313FA89F
:1015500002F06EFC00F033FE4FF0E020006940F036
:1015600001004FF0E021086101F009FE02F060FA8D
:10157000062001F08DFDBE4802F0B9F800214FF4BD
:10158000784002F0BAF8BB480388BB4802880021C3
:10159000084601F04FFE02F0D9F801F0F9FA01F027
:1015A00027FBB6A002F0C6FFC1A21421282002F03A
:1015B00042F800F01BFF40B9C2A002F0BBFFCAA274
:1015C0002821084602F037F80EE0CD4802F0B2FFBD
:1015D000CCA22821142002F02EF8D1A23C21052013
:1015E00002F029F800BFFEE70121DCA000F0A6FE12
:1015F0004FF4487000F002FE0121DBA000F09EFED7
:10160000C82000F0FBFD0121DAA000F097FE0121C7
:10161000DCA000F093FE0121DDA000F08FFE01218F
:10162000DEA000F08BFE0121DFA000F087FE01218B
:10163000E0A000F083FE0121E1A000F07FFE012187
:10164000E2A000F07BFE0121E4A000F077FE3FAABB
:10165000E7A135A802F07EFF012135A800F06EFE5B
:101660003FA9E7A002F066FF3FAAF2A103A802F09B
:1016700071FF03AA3C21142001F0DDFFFEE3F148D5
:101680008068002842D14FF40051EF48FFF7C3FAB9
:1016900000283BD1ED480078012821D1ECA002F0D0
:1016A00049FFF548007840B9F4A25021052001F027
:1016B000C2FF0120F04908700BE000211F2002F05A
:1016C0001CF8EEA25021052001F0B5FF0020EA49E8
:1016D000087001F045F940F6B830DA49886015E045
:1016E0000121EDA000F02AFE4FF47A7000F086FD93
:1016F0000121ECA000F022FEF0231A465021002028
:1017000001F098FD4FF4FA60CE498860CD4800683A
:10171000002873D14FF40051CB48FFF77CFA002822
:101720006CD000214FF6E07001F0E7FF1423F022A7
:101730005021002001F07EFDDDA25021052001F0A6
:101740007AFF4BA802F052F98046BDF82C214146A1
:10175000DD4800F0BEFE85B2C82D7CDA002D7AD0BF
:1017600000214FF6E07001F0C8FFD8A1404602F01A
:1017700094FB90B90220B44914310860D4A000F061
:1017800029FE1423F0226421002001F053FDD4A28D
:101790006421052001F04FFF69E2D7A1404602F025
:1017A0007CFB90B90220A84910310860D3A000F05A
:1017B00011FE1423F0226421002001F03BFDD3A28E
:1017C0006421052001F037FF51E2D7A1404602F025
:1017D00064FBA0B94FF48071D448FFF736FAD4A067
:1017E00000F0F8FD1423F0226421002001F022FD16
:1017F000D3A26421052001F01EFF38E23EE2D6A10B
:10180000404602F04AFB98B94FF48071C748FFF791
:101810001EFAD2A000F0DEFD1423F0226421002085
:1018200001F008FDD1A26421052001F004FF1EE2B1
:10183000D5A1404602F031FB002816D1D3A000F01C
:10184000C9FD1423F0226421002001F0F3FCD3A28F
:101850006421052000E00CE201F0EDFE00F09AFCAE
:10186000D4A002F067FEBAE1B6E1E2E1384E00082A
:101870004400002036000020340000203C3C2D486D
:101880004330352D494E464F2D3E3E202A2A2A2AE6
:101890002A2A2A2A2A2A48433035C4A3BFE9CAB5CE
:1018A000D1E92A2A2A2A2A2A2A2A2A2A2A2A0A007C
:1018B0004843303520426C7565546F6F746820441E
:1018C000656D6F003C3C2D484330352D494E464FE9
:1018D0002D3E3E2048433035C4A3BFE9BCECB2E204
:1018E000D5FDB3A3A1A30A0048433035206D6F6432
:1018F000756C65206465746563746564210000001F
:10190000C48900084E6F2048433035206D6F6475E0
:101910006C65206465746563746564210000000073
:10192000506C6561736520636865636B20746865DE
:1019300020686172647761726520636F6E6E6563A3
:1019400074696F6E20616E642072657365742074B3
:1019500068652073797374656D2E000041542B52B5
:10196000455345540D0A000041542B4F52474C0D2E
:101970000A00000041542B56455253494F4E3F0D2B
:101980000A00000041542B414444523F0D0A00001C
:1019900041542B554152543F0D0A000041542B43F2
:1019A0004D4F44453F0D0A0041542B53544154457B
:1019B0003F0D0A0041542B524F4C453D300D0A005B
:1019C00041542B494E49540D0A00000041542B4309
:1019D0004C4153533D300D0A0000000041542B4947
:1019E0004E514D3D312C392C34380D0A0000000089
:1019F00041542B4E414D453D25730D0A000000001A
:101A00003C3C2D484330352D494E464F2D3E3E201F
:101A1000B1BEC4A3BFE9C3FBD7D6CEAA3A25732073
:101A20002CC4A3BFE9D2D1D7BCB1B8BECDD0F7A1E9
:101A3000A30A0000446576696365206E616D653AAE
:101A40002573000068000020000C014028000020E1
:101A50003C3C2D484330352D494E464F2D3E3E20CF
:101A6000D5FDD4DAC9A8C3E8C0B6D1C0C9E8B1B8B9
:101A70002E2E2E0A00000000290000205363616E04
:101A8000696E6720626C7565746F6F746820646539
:101A9000766963652E2E2E0041542B494E510D0A56
:101AA0000000000041542B494E51430D0A00000034
:101AB000426C7565746F6F746820636F6E6E6563DA
:101AC00074656421000000009406002041000000BD
:101AD0002B4C4544313A4F4E0D0A4F4B0D0A000036
:101AE0007265636569766520636D643A2041542BA5
:101AF0004C4544313D4F4E00420000002B4C4544C4
:101B0000313A4F46460D0A4F4B0D0A007265636528
:101B100069766520636D643A2041542B4C4544310D
:101B20003D4F464600000000430000000008014011
:101B30002B424545503A4F4E0D0A4F4B0D0A0000BF
:101B40007265636569766520636D643A2041542B44
:101B5000424545503D4F4E00440000002B42454554
:101B6000503A4F46460D0A4F4B0D0A0072656365A9
:101B700069766520636D643A2041542B4245455097
:101B80003D4F464600000000400000002B54454DEC
:101B9000503A4F4E0D0A4F4B0D0A000072656365B7
:101BA00069766520636D643A2041542B54454D504D
:101BB0003D4F4E000D0A20746869732069732061DF
:101BC0002064733138623230207465737420646528
:101BD0006D6F200D0A000000D4A002F0ABFC01F0F4
:101BE000AFFF00287FF440AED6A002F0A3FC01A80E
:101BF00002F054F8D8A002F09DFC002406E001A8F1
:101C0000015DDCA002F096FC601CC4B2082CF6DB7F
:101C100000BF01A802F057F8814602F0E7F9064636
:101C200032460B46D5A002F085FCDD4800F00CFBE7
:101C3000EFE7DC49DCA002F07DFCC823F02278212C
:101C4000002001F0F7FA00214FF4784001F055FD33
:101C5000DDA27821052001F0EEFC00214FF6E070B6
:101C600001F04BFDCF4A8C21052001F0E4FC01F08E
:101C70008DFE4FF4FA70D849086000BFD64840681E
:101C8000B8B94FF40051D548FEF7C5FF88B1D44824
:101C900003780078401CD24A10703FAAD1A1DA48DC
:101CA00002F058FCD84800F095FB41F28830CA4950
:101CB00048600121D54800F0B6FF012878D1D4480A
:101CC000007808B9012000E00020D14908700846DA
:101CD000007800286DD10121AFF2803000F02EFB9A
:101CE0004FF4487000F08AFA0121AFF2383000F06A
:101CF00025FB0028E2D1642000F080FAC5A147A8A6
:101D000002F028FC47A9C5A002F014FC02F07EF8FE
:101D1000C4B2234647AACAA13FA802F01BFC3FAAAF
:101D2000AFF2343135A802F015FC012135A800F0DE
:101D300005FBC8B93FA9C5A002F0FCFB3FAACDA195
:101D400003A802F007FC00214FF4784001F0D5FC15
:101D50001423F0223C21002001F06CFA03AA3C215C
:101D6000052001F068FC11E0C6A002F0E3FB0021B1
:101D70001F2001F0C2FC1423F0223C21002001F0BE
:101D800059FAC8A23C21052001F055FC0121AFF20F
:101D9000D03000F0D3FA0121AFF2D03000F0CEFA0B
:101DA0000121AFF2C83000F0C9FA0020C149087023
:101DB0006DE00121AFF25C4000F0C0FA4FF44870D2
:101DC00000F01CFA0121BCA000F0B8FA00285ED196
:101DD000642000F013FABBA147A802F0BBFB47A99F
:101DE000BAA002F0A7FB02F011F8C4B2234647AA3A
:101DF00093A13FA802F0AEFB3FAAAFF20C4135A879
:101E000002F0A8FB012135A800F098FAC8B93FA953
:101E10008EA002F08FFB3FAA96A103A802F09AFBC6
:101E200000214FF4784001F068FC1423F0223C219B
:101E3000002001F0FFF903AA3C21052001F0FBFB83
:101E400011E090A002F076FB00211F2001F055FC6C
:101E50001423F0223C21002001F0ECF991A23C2156
:101E6000052001F0E8FB0121AFF2AC4000F066FA7A
:101E70000121AFF2A84000F061FA00E041E0012149
:101E8000AFF2A84000F05AFA00208A4908704FF4D7
:101E90000051974800F0C7FE012845D14AA800F03C
:101EA000B5F94A9801F0BCFF01F0B0FFC4B2234677
:101EB00047AA63A13FA802F04DFB3FAAAFF2D04171
:101EC00035A802F047FB012135A800F037FAC8B960
:101ED0003FA95EA002F02EFB3FAA66A103A802F074
:101EE00039FB00214FF4784001F007FC1423F02265
:101EF0003C21002001F09EF903AA3C21052001F0BD
:101F00009AFB11E05FA002F015FB00211F2001F0F9
:101F1000F4FB1423F0223C21002001F08BF961A294
:101F20003C21052001F087FBFFF7A9BB0D0A206EBD
:101F30006F20647331386232302065786974200D07
:101F40000A0000000D0A20647331386232302065C7
:101F5000786974200D0A00000D0A4453313842326A
:101F600030B5C4D0F2C1D0BAC5CAC7A3BA20307840
:101F700000000000252E3278000000000D0ABBF1A1
:101F8000C8A1B8C3D0F2C1D0BAC5C6F7BCFEB5C4AB
:101F9000CEC2B6C8A3BA20252E31660D0A000000B5
:101FA00040420F00940600203C3C2D484330352D24
:101FB000494E464F2D3E3E20726563656976653A0F
:101FC0000D0A25730A000000726563656976652055
:101FD000646174613A00000068000020000C014058
:101FE0002A0000203C25733E2073656E64206461E6
:101FF000746120746573742C7465737464617461A6
:102000003D25640D0A0000009402002000080140F4
:1020100028000020534C4156450000003C3C2D4810
:102020004330352D494E464F2D3E3E2068633035B6
:102030005F6D6F646520203D2025730A000000005D
:10204000484330355F25735F256400003C3C2D48D4
:102050004330352D494E464F2D3E3E20C9E8B1B89C
:10206000C3FBD7D6B1BBB8FCB8C4CEAAA3BA2573FC
:102070000A000000446576696365206E616D653A0B
:10208000202573003C3C2D484330352D4552524F9E
:10209000522D3E3E20B8FCB8C4C3FBD7D6CAA7B069
:1020A000DC0A000052656E616D65206661696C2115
:1020B000000000007400002041542B524F4C453D5D
:1020C000310D0A004D415354455200003C3C2D480F
:1020D0004330352D494E464F2D3E3E204843303546
:1020E000206D6F646520203D2025730A00000000EC
:1020F00000100140704700BFFEE700BFFEE700BFD1
:10210000FEE700BFFEE770477047704710B500F06C
:102110006CF800F081F800240CE00A4850F8240024
:1021200030B1084850F82400401E064941F8240008
:10213000601CC4B2032CF0DB10BD10B501F035FCFF
:1021400010BD00006800002030B50146B1F1807F6D
:1021500001D3012030BD21F07F40401E4FF0E0222E
:10216000506150170F22002807DA13071D0E4B4B42
:1021700000F00F04241F1D5503E013071C0E484BED
:102180001C5400BF00204FF0E02290610720106136
:102190000020DFE710B5434800684349B0FBF1F485
:1021A0002046FFF7D1FF08B100BFFEE74FF0E02067
:1021B000006920F001004FF0E021086110BD10B56A
:1021C000384800684FF47A71B0FBF1F42046FFF70D
:1021D000BBFF08B100BFFEE74FF0E020006920F030
:1021E00001004FF0E021086110BD3048006820B1C7
:1021F0002E480068401E2D49086070472B49086032
:1022000000BF2A4909680029FBD1704701462848C8
:10221000006808600020704725480068401C244979
:102220000860704701B52149009808604FF0E02030
:10223000006940F001004FF0E021086100BF1B4839
:1022400000680028FBD108BD31B51AA002F072F970
:10225000144800681449B0FBF1F52846FFF774FFF5
:1022600018A002F067F9002408E000BF4FF0E0205A
:10227000006900F480300028F8D0641C0098844283
:10228000F3D317A002F056F94FF0E020006920F0D8
:1022900001004FF0E021086138BD000018ED00E0BA
:1022A00000E400E00000002040420F002C0000206D
:1022B0003000002053746172742066696E6973681F
:1022C00065640A005379735469636B5F436F6E668C
:1022D00069672066696E69736865640A00000000BA
:1022E000666F722078756E6875616E2066696E69BA
:1022F000736865640A00000008B501210820FEF734
:10230000B3FE4FF40050ADF8000004208DF8030038
:1023100003208DF802006946FD48FEF7E9FB4FF403
:102320008040ADF8000010208DF8030003208DF8E8
:1023300002006946F648FEF7DBFB08BD2DE9F843CD
:1023400005460C464FF005094FF0010833E04FF405
:102350008041EF48FEF779FC0A20FFF74FFF29463E
:10236000EC4801F005FB002621E00A20FFF746FFBC
:10237000684601F03BFB0746BDF80000002811DD70
:10238000387818B100BF00BF00BF00BFE2A13846D7
:1023900001F060FD48B1012C01D101F0F7FA0020F5
:1023A000BDE8F8836420FFF729FF701CC6B2142E25
:1023B000DBDB00BF00BF5FEA0900A9F1010101F00A
:1023C000FF09C4D100BF00BF012C01D101F0DEFA2A
:1023D0004046E5E710B504464FF48041CC48FEF78F
:1023E00036FC2146CB4801F0C3FA10BD10B5FFF70B
:1023F00083FF01F058FA002416E004EBC40101EB5E
:102400000412C64901EB4200C5A102F0A3F804EB97
:10241000C40101EB0412C149FA3101EB4200C0A131
:1024200002F098F8601CC4B2052CE6DB0020BB4922
:102430002C3908700121BBA0FFF780FF10BD0146B9
:10244000002209B90020704722E00B78612B06DBDF
:102450000B78662B03DC0B78573BD8B214E00B7873
:10246000412B06DB0B78462B03DC0B78373BD8B2CD
:102470000AE00B78302B06DB0B78392B03DC0B786A
:10248000303BD8B200E006E000EB0212491C00BF6E
:1024900008780028D9D100BF1046D4E72DE9F041D3
:1024A00005460E461446204601F0F0FC87B20DB1F9
:1024B00006B114B90020BDE8F081BE4207D33A4608
:1024C0002146284601F000FD08B9E819F3E700208D
:1024D000F1E7F0B503460C461546002221460BE015
:1024E0000F781046521C1F54491C08780A2802D045
:1024F00008780D2800D103E0087808B1AA42EFDB84
:1025000000BF087838B108780A2804D008780D2868
:1025100001D00020F0BD002098541046FAE730B5F5
:102520008DB004460D464FF480417948FEF78DFB8F
:102530000A20FFF763FE45B1287830B12B462246CA
:102540007AA1684602F006F80CE03CB1207828B188
:10255000224679A1684601F0FDFF03E071A16846BB
:1025600001F0F8FF00BF00BF69466A4801F000FAB9
:102570000DB030BDFEB504460E46207808B900BF48
:1025800020E000251BE0201D00EBC5004068211D58
:1025900001EBC5018978CDE900160290211D31F8C3
:1025A000352005EBC50101EB051304F12C0101EB0E
:1025B0004300334662A101F0CDFF681CC5B220780C
:1025C000A842E0DCFEBD2DE9F04F8FB004464FF08D
:1025D0000009CA4600215DA0FFF7B0FE0EA801F079
:1025E00005FA804698F80000002873D05AA14046AA
:1025F00001F030FC0028F8D000BF00BF00BFBEE0F3
:1026000008EB0900022202FB0A01BDF8382001A8EC
:10261000FFF75FFF87B2322F08DD3FB1012150A0E5
:10262000FFF78CFE01200FB0BDE8F08F09EB07002B
:102630001FFA80F90AF1010000F0FF0A46A23946AC
:1026400001A8FFF72BFF0646002E60D025783A211F
:102650002046FFF78FFF4FF0000B10E00BEBCB0095
:1026600000EB0B1204F12C0000EB420101A801F079
:10267000F1FB00B1C3E70BF1010000F0FF0BAB452C
:10268000ECDD3046FFF7DBFE81B2201D20F835106F
:102690003A21304601F0F0FB06462EB9012130A068
:1026A000FFF74CFE0120BEE7711C0E460846FFF7FF
:1026B000C6FEC1B2201D00EBC50081703A21304634
:1026C00001F0DAFB064636B9012125A0FFF736FEF8
:1026D0000120A8E764E0711C0E460846FFF7AFFE34
:1026E000211D01EBC5014860201D00EBC5004068BD
:1026F000211D01EBC50100908B78211D31F835209B
:1027000005EBC50101EB051C04F12C012EE036E0C0
:10271000000C0140004400404F4B0000A00000208E
:102720002000000041540D0A0000000041542B25F8
:102730007325730D0A00000041542B25730D0A0008
:1027400025582563255825632558000041542B49F9
:102750004E510D0A000000002B494E513A00000076
:1027600041542B494E51430D0A00000001EB4C002F
:10277000A9A101F0EFFE2078401C207000BFBDF839
:102780003800022101FB1A0048453FF739AF01F03C
:10279000FDF80121AFF23800FFF7D0FD002042E73D
:1027A00001F0F4F80121AFF24800FFF7C7FD012066
:1027B00039E72DE9F041A8B006462C213046FFF755
:1027C000D9FE00BF00BF002447E004EBC40000EBCB
:1027D000041106F12C0000EB410292A101A801F0C6
:1027E000B9FE002101A8FFF7A9FD27A801F0FEF816
:1027F0000746387838B3AFF2E001384601F02AFBDB
:1028000008B3BDF89C2039461AA8FFF762FE85B2CE
:10281000322D03DD15B100201AA9485585A229469D
:102820001AA8FFF73BFE8046B8F1000F11D004EB69
:10283000C40101EB041206F5937101EB420041461D
:1028400001F039FB05E001F0A1F8012028B0BDE856
:10285000F08101F09BF8601CC4B23078A042B4DC77
:102860000020F3E730B599B00546287808B900BFD5
:1028700074E000BF00BF2A7870A1684601F06AFECC
:1028800000214FF4784000F038FFC823F02278216F
:10289000002000F0CFFC6A467821322000F0CBFE09
:1028A000002458E021466AA001F044FE04EBC40075
:1028B00000EB041205F12C0000EB420170A001F0C6
:1028C00039FE04EBC40000EB041205F5937000EB35
:1028D000420174A001F02EFE00214FF6E07000F0DE
:1028E0000CFF224678A1684601F034FEC4EB0410C8
:1028F0008C2202EB80016A46052000F09CFE04EB6E
:10290000C40000EB041105F12C0000EB410276A19C
:10291000684601F01FFEC4EB0410A02202EB800108
:102920006A46052000F087FE04EBC40000EB0411AA
:1029300005F5937000EB41026FA1684601F00AFEB5
:10294000C4EB0410B42202EB80016A46052000F0BB
:1029500072FE601CC4B22878A042A3DC19B030BD5E
:1029600010B59AB000246848FFF72DFE6648FFF7BF
:1029700020FF6548FFF776FF00BF46E004EBC40187
:1029800001EB0412614901EB420061A101F062FA1E
:10299000002838D060A001F0CDFD00214FF6E07096
:1029A00000F0ABFE1423F0225021002000F042FC86
:1029B00068A25021052000F03EFE2C215248FFF76E
:1029C000D9FD04EBC40000EB04114F482C3000EBA0
:1029D000410267A101A801F0BDFD002101A8FFF798
:1029E000ADFC04EBC40000EB041147482C3000EBB5
:1029F000410263A101A801F0ADFD002101A8FFF78C
:102A00009DFC1AB010BD601CC4B23F480078A042C3
:102A1000B4DA0120F5E7000025583A25583A255840
:102A20000000000041542B524E414D453F25730D8F
:102A30000A0000002B524E414D453A0020256420EB
:102A400064657669636520666F756E642E000000AC
:102A50003C3C2D484330352D494E464F2D3E3E20BF
:102A60002F2A2A2A2A2A2A2A4465766963655B2541
:102A7000645D2A2A2A2A2A2A2A2A2F0A000000000C
:102A80003C3C2D484330352D494E464F2D3E3E208F
:102A900044657669636520416464723A2025730A4F
:102AA000000000003C3C2D484330352D494E464F38
:102AB0002D3E3E20446576696365206E616D653A02
:102AC0002025730A00000000202F2A2A2A2A2A2AF9
:102AD0002A4465766963655B25645D2A2A2A2A2A69
:102AE0002A2A2A2F00000000446576696365204188
:102AF0006464723A20257300446576696365206ECC
:102B0000616D653A20257300740000209A01002051
:102B100048433035000000003C3C2D484330352D03
:102B2000494E464F2D3E3E20CBD1CBF7B5BDD4B656
:102B3000B3CC48433035C4A3BFE9A3ACBCB4BDABF0
:102B4000BDF8D0D0C5E4B6D4C1ACBDD32E2E2E0A6C
:102B500000000000466F756E6420612048433035E8
:102B6000202C636F6E656374696E672E2E2E0000D5
:102B700041542B504149523D25732C32300D0A00EF
:102B800041542B4C494E4B3D25730D0A000000006B
:102B900008B501210820FEF767FA2020ADF80000F3
:102BA00010208DF8030003208DF8020069460F48BD
:102BB000FDF79EFF0120ADF8000069460B48FDF7C8
:102BC00097FF0220ADF8000069460848FDF790FF26
:102BD00020210648FEF739F801210448FEF735F8B0
:102BE00002210248FEF731F808BD0000000C014048
:102BF00008B501211420FEF737FA0120ADF80000D6
:102C000004208DF8030069461148FDF771FF4FF469
:102C10000050ADF8000004208DF8030069460D480F
:102C2000FDF766FF08BD70B504460D4629462046EF
:102C3000FDF7F1FF012808D100BF29462046FDF726
:102C4000EAFF0128F9D0012070BD0020FCE7000058
:102C5000000801400010014001B502E00098401E4C
:102C6000009000980028F9D108BD08B50121602026
:102C7000FEF7FAF903208DF8020018208DF8030002
:102C80004FF48040ADF800006946FE48FDF730FF84
:102C90004FF40040ADF800006946FA48FDF728FF00
:102CA0000120ADF800006946F648FDF721FF02203B
:102CB000ADF800006946F348FDF71AFF8020ADF833
:102CC00000006946F048FDF713FF4FF48070ADF83F
:102CD00000006946EC48FDF70BFF4FF40070ADF8BB
:102CE00000006946E848FDF703FF4FF48060ADF847
:102CF00000006946E448FDF7FBFE4FF40060ADF8C4
:102D000000006946E048FDF7F3FE4FF48050ADF84F
:102D100000006946DC48FDF7EBFE4FF40050ADF8CB
:102D200000006946D848FDF7E3FE4FF48040ADF857
:102D300000006946D448FDF7DBFE4FF40040ADF8D3
:102D400000006946D048FDF7D3FE4FF48070ADF81F
:102D500000006946CB48FDF7CBFE4FF40070ADF89C
:102D600000006946C748FDF7C3FE4FF48060ADF828
:102D700000006946C348FDF7BBFE03208DF8020042
:102D800018208DF803001020ADF800006946BD48FA
:102D9000FDF7AEFE2020ADF800006946B948FDF70A
:102DA000A7FE8020ADF800006946B648FDF7A0FEFA
:102DB0004FF40060ADF800006946B248FDF798FE98
:102DC00010208DF8030003208DF802000220ADF8DA
:102DD00000006946AC48FDF78BFE10208DF803001B
:102DE00003208DF802004FF48050ADF800006946D2
:102DF000A448FDF77DFE08BD00B597B0012108028B
:102E0000FEF725F901200190042003908006079029
:102E100000200290049005900690089009900820E8
:102E20000A9010200B9000200C900E900F901090A4
:102E30004FF480501190002012901390149001A82C
:102E40001590169008A8FDF739FB01210020FDF729
:102E50009DFC17B000BD10B5CF2001F061FB002034
:102E600001F062FB812001F05FFB302001F05CFB90
:102E7000ED2001F055FB642001F056FB032001F02A
:102E800053FB122001F050FB812001F04DFBE820A4
:102E900001F046FB852001F047FB102001F044FBC8
:102EA000782001F041FBCB2001F03AFB392001F002
:102EB0003BFB2C2001F038FB002001F035FB3420D7
:102EC00001F032FB022001F02FFBF72001F028FB7C
:102ED000202001F029FBEA2001F022FB002001F074
:102EE00023FB002001F020FBB12001F019FB0020A2
:102EF00001F01AFB1B2001F017FBB62001F010FBBC
:102F00000A2001F011FBA22001F00EFBC02001F00D
:102F100007FB352001F008FBC12001F001FB112067
:102F200001F002FBC52001F0FBFA452001F0FCFA9C
:102F3000452001F0F9FAC72001F0F2FAA22001F0D1
:102F4000F3FAF22001F0ECFA002001F0EDFA26206D
:102F500001F0E6FA012001F0E7FAE02001F0E0FAE2
:102F60000F2001F0E1FA262001F0DEFA242001F022
:102F7000DBFA0B2001F0D8FA0E2001F0D5FA092077
:102F800001F0D2FA542001F0CFFAA82001F0CCFAD7
:102F9000462001F0C9FA0C2001F0C6FA172001F012
:102FA000C3FA092001F0C0FA0F2001F0BDFA072092
:102FB00001F0BAFA002001F0B7FAE12001F0B0FA0E
:102FC000002001F0B1FA192001F0AEFA1B2001F047
:102FD000ABFA042001F0A8FA102001F0A5FA0720AE
:102FE00001F0A2FA2A2001F09FFA472001F09CFA92
:102FF000392001F099FA032001F096FA062001F039
:1030000093FA062001F090FA302001F08DFA382072
:1030100001F08AFA0F2001F087FA362001F080FAD9
:10302000C82001F081FA2A2001F07AFA002001F08C
:103030007BFA002001F078FA002001F075FAEF2009
:1030400001F072FA2B2001F06BFA002001F06CFA0B
:10305000002001F069FA012001F066FA3F2001F03A
:1030600063FA3A2001F05CFA552001F05DFA112074
:1030700001F056FA0548FFF7EFFD292001F050FA5C
:1030800010BD00000014014000180140FCBF020008
:1030900010B50446072C00DD10BDFE480470204624
:1030A00004EBD0714910A4EB410139B9F020FA4981
:1030B00008804FF4A070F949088006E04FF4A07032
:1030C000F5490880F020F5490880362001F028FAFB
:1030D000082141EA441001F027FA2A2001F020FAE1
:1030E000002001F021FA002001F01EFAEA490988C7
:1030F000491EC1F3072001F017FAE7490978491E74
:10310000C8B201F011FA2B2001F00AFA002001F0F8
:103110000BFA002001F008FAE0490988491EC1F3C2
:10312000072001F001FADD490978491EC8B201F013
:10313000FBF92C2001F0F4F900BFADE710B5022136
:10314000D748FDF784FD40F6FF20FFF785FD0221FB
:10315000D348FDF77AFD40F6FF20FFF77DFD10BD57
:1031600010B504462CB14FF48051CE48FDF76FFDE9
:1031700004E04FF48051CB48FDF767FD10BD10B55A
:10318000FFF773FDFFF738FE0120FFF7E9FFFFF7B8
:10319000D5FFFFF760FEBF480078FFF779FF10BD4D
:1031A0002DE9F04104460D4616461F462A2001F03F
:1031B000B7F9201201F0B8F9E0B201F0B5F9A119A0
:1031C000491EC1F30F2001F0AFF9A119491EC8B281
:1031D00001F0AAF92B2001F0A3F9281201F0A4F9BB
:1031E000E8B201F0A1F9E919491EC1F30F2001F07D
:1031F0009BF9E919491EC8B201F096F9BDE8F081C2
:1032000070B504460D4601231A4629462046FFF7AD
:10321000C7FF70BD70B504460D4600262C2001F096
:103220007FF900BF03E0284601F07EF9761CA64234
:10323000F9D370BD2DE9F04106460F4614461D46F0
:103240002B46224639463046FFF7AAFF04FB05F01D
:1032500095490988FFF7DEFFBDE8F08170B50546A6
:103260000C468D48008885420CDA8C4800888442E0
:1032700008DA21462846FFF7C3FF8C480188012061
:10328000FFF7C8FF70BD70B50024002500262E2072
:1032900001F046F901F03EF9044601F03BF904461D
:1032A00001F038F9064601F035F90546E012C00292
:1032B000A91240EA411040EAE62070BD70B504460C
:1032C0000D4629462046FFF79BFFFFF7DCFF064629
:1032D000304670BD2DE9FF4F83B081464FF0000AA4
:1032E000D3460598A0EB090504990698461ACDF82F
:1032F000049004980090002D01DD012705E00DB930
:10330000002702E04FF0FF376D42002E02DD4FF044
:10331000010806E016B94FF0000802E04FF0FF3850
:103320007642B54201DD2C4600E034460020029092
:1033300019E0DDE90010FFF791FFAA44B344A2456C
:1033400005DDAAEB040A0198384480B20190A34538
:1033500005DDABEB040B0098404480B2009002986E
:10336000401C80B20290611C02988842E1DD07B0E7
:10337000BDE8F08F2DE9F04104460D4616461F4684
:10338000DDF81880B8F1000F0CD03B4632462946D4
:103390002046FFF705FF06FB07F044490988FFF7C1
:1033A00039FF27E0A019401E82B22B46294620464D
:1033B000FFF790FFE819401E83B2A019401E82B2A9
:1033C000E819401E81B22046FFF784FFE819401E2D
:1033D00083B2224629462046FFF77CFFE919491EA1
:1033E0008BB2A119491E8AB2A119491E88B2294679
:1033F000FFF770FFBDE8F0812DE9F05F05460E464E
:1034000091469B4600240FFA89F70320A0EB490060
:103410000FFA80FA97E0BBF1000F50D0A0464BE0C6
:1034200006EB080291B22A1990B2FFF717FF06EBDC
:10343000080291B22A1B90B2FFF710FF321991B225
:10344000A5EB080290B2FFF709FF321B91B2A5EB82
:10345000080290B2FFF702FFA6EB080291B22A1B06
:1034600090B2FFF7FBFEA6EB080291B22A1990B2C8
:10347000FFF7F4FE321B91B205EB080290B2FFF7A2
:10348000EDFE321991B205EB080290B2FFF7E6FEAD
:103490000EE000003800002034000020360000203C
:1034A00000180140001401404200002040000020AC
:1034B00008F101000FFA80F8B845B1DD2FE0F219EC
:1034C00091B22A1990B2FFF7C9FEF21991B22A1BE4
:1034D00090B2FFF7C3FE321991B2EA1B90B2FFF728
:1034E000BDFE321B91B2EA1B90B2FFF7B7FEF21B92
:1034F00091B22A1B90B2FFF7B1FEF21B91B22A19CA
:1035000090B2FFF7ABFE321B91B2EA1990B2FFF70F
:10351000A5FE321991B2EA1990B2FFF79FFE601C26
:1035200004B2BAF1000F05DAA000801D50440FFA72
:1035300080FA07E0E01B80000A3050440FFA80FA5E
:10354000781E07B200BFBC427FF765AFBDE8F09FB1
:103550002DE9F05F804689461646A6F120001FFA45
:1035600080FA754909688988734A1268D28801FB14
:1035700002F0C11700EB5171C1F3C7076E48006834
:1035800000680AFB070B6C480068C3886A4800683B
:10359000828849464046FFF703FE2C2000F0C0FF1A
:1035A000002416E0002510E01BF8040080212941CA
:1035B000084020B16148008800F0B6FF03E0604891
:1035C000008800F0B1FF681CC5B2082DECDB601C60
:1035D000C4B2BC42E6DBBDE8F09F70B504460D46C0
:1035E000002624E030465449096889880844554932
:1035F0000988884205DD00264F480068C0882044BD
:1036000084B220464C490968C98808444E49098853
:10361000884201DD002600242A7821463046FFF743
:1036200097FF6D1C444800688088304486B2287833
:103630000028D7D170BD70B505460E46144624E06B
:1036400028463D490968898808443E4909888842D6
:1036500005DD002538480068C088304486B2304611
:1036600035490968C988084437490988884201DD15
:1036700000250026227831462846FFF769FF641CA2
:103680002D4800688088284485B220780028D7D14A
:1036900070BD70B505460E46144624E030462649F6
:1036A0000968C988084428490988884205DD002638
:1036B000214800688088284485B228461E49096848
:1036C000898808441F490988884201DD00250026B1
:1036D000227831462846FFF73BFF641C16480068F5
:1036E000C088304486B220780028D7D170BD1249F6
:1036F00008607047104800687047104A1080104AF0
:10370000118070470D4A128802800D4A12880A8083
:1037100070470A490880704709490880704770B5AA
:103720000446FFF7E7FFC5882B4606480288214676
:103730000020FFF77FFD70BD3C000020400000200E
:1037400042000020340000203600002000B585B083
:1037500001210420FDF788FC01218803FDF784FC8A
:103760004FF40070ADF8100018208DF813000320FE
:103770008DF8120004A93F48FDF7BAF94FF48060B4
:10378000ADF8100004208DF8130004A93948FDF7A6
:10379000AFF94FF4E13000900020ADF80400ADF82F
:1037A0000600ADF80800ADF80C000C20ADF80A00DA
:1037B00069463148FDF7FFFC01212F48FDF787FDE1
:1037C00005B000BD00B585B001210420FDF74CFC1B
:1037D00001214804FDF748FC0420ADF81000182032
:1037E0008DF8130003208DF8120004A92148FDF77D
:1037F0007FF90820ADF8100004208DF8130004A90B
:103800001C48FDF775F94FF4E13000900020ADF849
:103810000400ADF80600ADF80800ADF80C000C206F
:10382000ADF80A0069461548FDF7C5FC01211348AB
:10383000FDF74DFD05B000BD70B504460D46E1B283
:103840000D48FDF7B1FD00BF80210B48FDF71AFEC2
:103850000028F9D0204670BD10B5044600BF2021D5
:103860000548FDF70FFE0028F9D00348FDF7A0FD3D
:1038700010BD000000080140003801400044004035
:1038800008B54FF4E060FCF75FFD26208DF80000DE
:1038900001208DF801008DF802008DF803006846C4
:1038A000FCF757FD08BD00B585B001214804FDF7C0
:1038B000E8FB01210420FDF7D7FB0420ADF8100040
:1038C00018208DF8130003208DF8120004A94A482F
:1038D000FDF70EF90820ADF8100004208DF8130054
:1038E00004A94548FDF704F94FF416400090002064
:1038F000ADF80400ADF80600ADF80800ADF80C0016
:103900000C20ADF80A0069463C48FDF754FCFFF76F
:10391000B7FF012240F225513848FDF7E4FC0121B0
:103920003648FDF7D4FC40213448FDF7B8FD05B01A
:1039300000BD70B504460D4629462046FDF734FD0E
:1039400000BF80212046FDF79DFD0028F9D070BD05
:103950002DE9F04107460D461646002400BF295DBB
:103960003846FFF7E6FF641CB442F8D3BDE8F081A7
:1039700070B506460C46002500BF615D3046FFF776
:10398000D8FF6D1C605D0028F7D170BD40F201408A
:1039900000211B4A118005E00022411E89B2084621
:1039A000184B5A540028F7D1704710B514480088B6
:1039B000B0F5806F12DA40F225511048FDF778FD1E
:1039C00098B10E48FDF7F4FC0E490D4A1288885450
:1039D0000B480088401C0A49088006E040F2255147
:1039E0000648FDF78FFDFFF7D1FF10BD01460448E3
:1039F00000880880034870470008014000440040E8
:103A00005C000020940A002008B501210420FDF785
:103A10002BFB4FF48070ADF8000010208DF80300F0
:103A200003208DF8020069460648FDF761F808BDDD
:103A300010B5FFF7E9FF4FF480710248FDF707F971
:103A400010BD00000008014008B54020ADF800009E
:103A500048208DF803006946C048FDF749F808BDC5
:103A600010B50024FEF796FBFFF7EEFF0AE0601C9E
:103A700084B2BBA000F05EFD0120FEF7E5FBBCA018
:103A800000F058FD4021B548FDF7C5F808B1642C99
:103A9000EDDB2146BAA000F04DFD642C01DB0120D6
:103AA00010BD002404E0601C84B20120FEF7BAFBC4
:103AB0004021AA48FDF7AFF808B9F02CF3DB214606
:103AC000B6A000F037FDF02C01DB0120E8E7002074
:103AD000E6E708B54020ADF8000010208DF803009F
:103AE00003208DF8020069469C48FDF701F808BDE7
:103AF00010B5FFF7EEFF40219848FDF7A8F8FEF754
:103B00005EFB40F2EE20FEF78DFB40219348FDF76F
:103B10009CF80F20FEF786FB10BD08B50121402060
:103B2000FDF7A2FA4020ADF8000010208DF8030048
:103B300003208DF8020069468848FCF7D9FF08BDCC
:103B400010B5FFF7EAFF40218448FDF77EF8FFF744
:103B5000CFFF99A000F0EEFCFFF782FF10BD10B57B
:103B6000FFF7B7FF40217D48FDF771F80A20FEF707
:103B700059FBFFF769FF40217848FDF74CF8012811
:103B800001D1012400E000242D20FEF74BFB20464C
:103B900010BD70B50026002408E0FFF7E0FF0546E1
:103BA00005FA04F03043C6B2601CC4B2082CF4DB42
:103BB000304670BD70B50446FFF78BFF002522E04C
:103BC00004F00106641076B140216448FDF73FF827
:103BD0000820FEF727FB40216048FDF736F83A2021
:103BE000FEF720FB0DE040215C48FDF730F8462051
:103BF000FEF718FB40215948FDF727F80220FEF791
:103C000011FB681CC5B2082DDADB70BD10B5FFF7DB
:103C10006FFFFFF725FFCC20FFF7CCFF10BD10B5DD
:103C2000FFF766FFFFF71CFF5520FFF7C3FF10BD2E
:103C30002DE9F05FFFF7EAFF4420FFF7BBFFFFF736
:103C4000E5FFBE20FFF7B6FFFFF7A3FF8346FFF7B0
:103C5000A0FF82464FEA0A2004B244EA0B04002C7B
:103C60000DDAE043401C00F0B0F907460022584B43
:103C700000F039F9054600F0CCF981460BE020460A
:103C800000F0A3F907460022514B00F02CF905463D
:103C900000F0BFF981464846BDE8F09F70B5054683
:103CA0003320FFF787FF4BA000F044FC002404E022
:103CB000FFF76FFF2855601CC4B2082CF8DB4CA03E
:103CC00000F038FC70BD2DE9FC5F0646FFF7A7FF4A
:103CD000002404E0305DFFF76DFF601CC4B2082CC7
:103CE000F8DB4420FFF766FFFFF799FF002404E0AC
:103CF000305DFFF75FFF601CC4B2082CF8DBBE200C
:103D0000FFF758FFFFF745FF8346FFF742FF814665
:103D10004FEA092005B245EA0B05002D0EDAE8430B
:103D2000401C00F052F907460022294B00F0DBF856
:103D3000CDE9000100F06DF982460CE0284600F064
:103D400044F907460022224B00F0CDF8CDE90001EE
:103D500000F05FF982465046BDE8FC9F0018014024
:103D600044656C61795F75732073746172740A00C5
:103D700044656C61795F757320656E640A000000AC
:103D800031313170756C73655F74696D652066697A
:103D90006E69736865642025640A000032323270EF
:103DA000756C73655F74696D652066696E697368AB
:103DB00065642025640A0000445331384232305F84
:103DC00052737428292066696E69736865640A00F5
:103DD0000000B03F445331384232305F577269744B
:103DE00065427974652066696E6973686564000070
:103DF000445331384232305F5265616442797465B0
:103E00002066696E69736865640000000649074AA8
:103E10000868504343F23902104408604008704774
:103E20000149086070470000600000206D4EC641E7
:103E300040EA01039B0703D009E008C9121F08C02C
:103E4000042AFAD203E011F8013B00F8013B521EAC
:103E5000F9D2704730B505462A460B4612F8010BD9
:103E600013F8014B08B1A042F8D01CB1002802D0D1
:103E70006D1CF1E7284630BDCAB2401E10F8011F84
:103E80008A4202D00029F9D100207047421C10F864
:103E9000011B0029FBD1801A704710B5002200E0F9
:103EA000521C835C8C5CA34201D1002BF8D1D8B2A8
:103EB000E1B2401A10BD034611F8012B00F8012BA6
:103EC000002AF9D11846704730B505460020034650
:103ED00000E05B1C934205D2EC5CC85C201A01D167
:103EE000002CF6D130BD2DE9FE4F81EA030404F029
:103EF000004421F0004100944FF0000B23F00043F8
:103F000050EA01045ED052EA03045BD0C3F30A54C2
:103F1000C1F30A552C44A4F2F3340194A0FB0254DB
:103F2000C1F3130141F48011C3F3130343F480136D
:103F300001FB024400FB034E840A970A44EA8154C1
:103F400047EA8357A4FB076802958D0A05FB07859E
:103F50004FEA932C04FB0C542705029D4FEA0658A8
:103F600047EA1637B5EB08056EEB070C870E920E85
:103F700047EA811742EA8312A7FB0201B6EB0B0165
:103F800064EB00042B0D43EA0C335E1844EB1C5029
:103F9000DA465146E7FB0201C5F313044FEA0B333F
:103FA00043EA14534FEA0432019C43EA0603A4F1A6
:103FB0000C040294009CCDE900B400F0D3F803B0E7
:103FC000BDE8F08F00200146F9E70EB5C10F80EA89
:103FD000E0700844CA07002140F233438DE80E0028
:103FE0000A460B4600F0BEF803B000BD00F00042E8
:103FF00030F000400AD0C10D01F56071C0F3160029
:1040000042EA0151C20840071143704700200146AF
:10401000704701F0004330B421F0004150EA010242
:1040200006D00A0DA2F56072C1F31301002A02DC6A
:1040300030BC00207047440F44EAC104C100E018BE
:1040400030BC00EBC25000F047B830B50B4601461B
:1040500000202022012409E021FA02F59D4205D327
:1040600003FA02F5491B04FA02F52844151EA2F1D1
:104070000102F1DC30BD2DE9F05F054600209246DB
:104080009B4688460646814640241BE0284641461A
:104090004746224600F01BFA53465A46C01A914141
:1040A00010D311461846224600F002FA2D1A67EB8B
:1040B00001084F4622460120002100F0F9F917EBD4
:1040C00000094E41201EA4F10104DFDC48463146C0
:1040D0002A464346BDE8F09F0029A8BF7047401C10
:1040E000490008BF20F00100704710B4B0FA80FC0E
:1040F00000FA0CF050EA010404BF10BC704749B14B
:10410000CCF1200421FA04F411FA0CF118BF0121BA
:1041100021430843A3EB0C01CB1D4FEA00614FEA9A
:10412000102042BF002010BC704700EBC350104469
:104130000029A4BF10BC7047401C490008BF20F0F4
:10414000010010BC704710B5141E73F1000408DAAA
:10415000401C41F1000192185B411A4301D120F04B
:10416000010010BD2DE9F04D92469B4611B1B1FA08
:1041700081F202E0B0FA80F22032904600F098F925
:1041800004460F4640EA0A0041EA0B0153465A46EC
:10419000084313D0114653EA010019D0C8F1400278
:1041A000504600F094F905460E46504659464246A0
:1041B00000F07EF9084305D0012004E0204639468E
:1041C000BDE8F08D0020054346EAE0762C433743F6
:1041D0000A986305E40AA0EB08000022FD0A44EAFD
:1041E00047540A3002D500200146E9E701051019BD
:1041F0006941DDE9084500196941BDE8F04DA2E7D4
:104200002DE9FE4F804681EA0300C00F0C46009066
:1042100021F0004123F00045B8EB0200A94105D28E
:104220004046214690461C460B46024623F000407D
:10423000104347D0270DC7F30A00C3F30A51029079
:10424000401A019040286BDAC3F3130040F4801B3E
:104250000098924620B10023D2EB030A63EB0B0BCC
:1042600001985946C0F14002504600F021F9064637
:104270000D4650465946019A00F039F910EB0800F6
:104280006141002487EA115284EAE7731A4340D05F
:10429000009A62B3019A012A4FEA075215DC001B0B
:1042A00061EB02014FF0004202EA0752CDE9004201
:1042B000001C41F5801132462B46FFF753FF03B037
:1042C000BDE8F08F40462146F9E7001B61EB020193
:1042D000001C41F5801300185B412018A2F500175F
:1042E00047EB030140EAD570B6196D4111E06D0846
:1042F0004FEA360645EAC0754FEA0752001B61EBEC
:104300000201001C41F5801149084FEA30000019F4
:10431000514132462B4603B0BDE8F04FFFF713BFC3
:104320000098012240000023D0EB020263EBE0730F
:10433000009821464FEAE074B8EB000061EB0401FD
:10434000E9E783F000435BE781F0004158E72DE99E
:10435000F04D81EA030404F0004B21F000451446BF
:104360004FF0000A23F0004150EA050220D054EA41
:1043700001021DD0C5F30A570246C5F31303C1F36A
:104380001300C1F30A5640F4801543F48013A7EBE1
:104390000608101BD64608F2FD3873EB050002D361
:1043A00008F1010801E092185B41B8F1000F03DA4F
:1043B00000200146BDE8F08D00204FF48011064634
:1043C00084460EE0171B73EB050705D3121B63EB46
:1043D000050306434CEA010C49084FEA30009218E5
:1043E0005B4150EA0107EDD152EA030012D082EAA4
:1043F000040083EA0501084305D0101BAB4106D237
:104400000122002306E000224FF0004302E06FF09B
:10441000010253101AEB06004CEB085110EB0A0096
:1044200041EB0B01BDE8F04DFFF78DBEC1F30A5221
:10443000C1F3130140F2FF3341F480119A4202DAD2
:1044400000200146704740F233439A42A2F23342C1
:1044500002DC524200F03BB800F02AB830B5041E2E
:1044600071F1000404DB4FF00044404264EB0101B1
:10447000141E73F1000405DB1C464FF0004352424A
:1044800063EB0403994208BF904230BD064C074DD0
:1044900006E0E06840F0010394E807009847103414
:1044A000AC42F6D3FBF748FE208A0008408A000899
:1044B000202A04DB203A00FA02F1002070479140E4
:1044C000C2F1200320FA03F3194390407047202AD9
:1044D00004DB203A21FA02F00021704721FA02F3AE
:1044E000D040C2F120029140084319467047202A6B
:1044F00006DBCB17203A41FA02F043EAE07306E00C
:1045000041FA02F3D040C2F120029140084319461B
:1045100070470000014800887047000000000260FA
:104520004FF0C04108807047014908807047000083
:10453000000002600FB4054B10B503A9044A0298AD
:1045400000F0DEF810BC5DF814FB000039380008FC
:10455000640000200FB4084B10B504A902AA039808
:1045600000F0CEF8044602A9002000F060FC2046CE
:1045700010BC5DF814FB00002F4E000802E008C8D4
:10458000121F08C1002AFAD170477047002001E0CD
:1045900001C1121F002AFBD1704700002DE9FF5F07
:1045A000DDE90220010DDDF838B0024318D044F6F1
:1045B0001050A1F2FF3141430D140F98012820D073
:1045C000A5EB0B00401C5FEA000A4FF00004474EC9
:1045D000DFF81C91A046504616D5CAF1000728E026
:1045E0000F98012443A2012808D0002100980F9BB6
:1045F000C0E90021C0E90243BDE8FF9F6FEA0B015B
:10460000F4E7CBF10000DEE7074612E0F80707D039
:104610002246334640464946FFF765FC80468946B8
:104620002246334610461946FFF75DFC04460E4607
:104630007F10002FEAD1DDE90201BAF1000F4246F6
:104640004B4602DAFFF74FFC01E0FFF780FE04461D
:104650000E460022284BFFF701FF03D84FF0FF3032
:10466000014607E00022254B20463146FFF7C8FDF2
:10467000FFF7DCFE102409E0002C0ADB0A220023ED
:10468000FFF7F9FC019B30321A55641E50EA010213
:10469000F2D1641C019AC4F1110314440F9A012A47
:1046A00003D0012208430DD10AE0084304D00020C2
:1046B0004FF0110B0F9080E7A3EB0B056D1E0DE083
:1046C0005B4504DD4FF0000205F1010504E003DA6B
:1046D0004FF00002A5F10105002AECD000980F99D7
:1046E000C0E90231C0E9004586E70000000024402F
:1046F0000000F03F300000000000F0430000E03F09
:104700002DE9FF4F95B09B468946064600250FE2EE
:10471000252877D100242746F84A0121059400E096
:10472000044316F8013F203B01FA03F01042F7D191
:1047300030782A2811D06FF02F033078A0F13002A2
:10474000092A16D8059A44F0020402EB820203EB10
:1047500042021044761C0590EFE759F8042B0592AD
:10476000002A03DA504244F40054059044F0020455
:10477000761C30782E2816D116F8010F44F0040468
:104780002A280DD06FF02F023078A0F13003092BCA
:1047900009D807EB870302EB4303C718761CF3E73E
:1047A00059F8047B761C30786C280FD006DC4C2836
:1047B00017D068280DD06A2814D104E0742810D0CE
:1047C0007A280FD10DE044F400140AE044F4801478
:1047D00001E044F440147278824202D104F580145E
:1047E000761C761C307866280BD013DC582877D0DE
:1047F00009DC002875D04528F6D04628F4D0472893
:104800001AD19DE118E0632835D0642879D0652855
:1048100012D195E1702873D008DC6728F1D069289F
:104820006FD06E280DD06F2806D1B5E073282CD03C
:10483000752875D0782874D05A46179990476D1C02
:1048400075E1C4F30250022809D003280DD0D9F82D
:10485000001004280DD00D6009F1040967E1D9F8B2
:104860000010EA17C1E90052F6E7D9F800100D80F0
:10487000F2E70D70F0E719F8041B8DF80010002026
:104880008DF80100EA46012003E059F804AB4FF02F
:10489000FF3061074FF0000102D40DE008F1010183
:1048A0008846B9420FDA8045F8DB1AF8081000296B
:1048B000F4D108E008F1010188468142FADB1AF8D8
:1048C00008100029F6D105985B46A0EB08072146A1
:1048D0003846179A00F094FA284400EB080507E0E0
:1048E0004DE029E10DE01AF8010B5A46179990475F
:1048F000B8F10108F7D25B4621463846179A13E112
:1049000042E00A220092C4F302524FF0000A022A47
:1049100008D059F804CB032A4FEAEC710AD00DE015
:1049200029E02AE009F1070121F00702F2E802C1BB
:10493000914609E00FFA8CFC4FEAEC71042A03D18E
:104940004FFA8CFC4FEAEC71002907DA0A46002185
:10495000DCF1000C61EB02012D2202E0220504D5FE
:104960002B228DF80420012203E0E20701D020224F
:10497000F7E7904659E00A2102E010220DE01021ED
:104980004FF0000A00910BE010224FF0000A44F0B3
:1049900004040827009203E008224FF0000A009266
:1049A000C4F30252022A05D059F804CB0021032A8D
:1049B00008D009E009F1070121F00702F2E802C17D
:1049C000914605E01FFA8CFC042A01D10CF0FF0C83
:1049D0004FF00008220728D5702806D0009B83F0EE
:1049E000100353EA0A0305D00EE040228DF804209C
:1049F000012208E05CEA010206D030228DF8042092
:104A00008DF8050002229046009B83F0080353EACC
:104A10000A030AD15CEA010201D1620705D53022FE
:104A20008DF804204FF001087F1E582804D034A0D0
:104A300003900EA802900DE036A0F9E753466046B9
:104A4000009AFFF718FB84460398825C0298401E88
:104A5000029002705CEA0100F0D1029806A9081ADF
:104A600000F1200A600702D524F4803400E0012719
:104A7000574502DDA7EB0A0000E0002000EB0A0129
:104A8000009005984144401A0590E00306D45B4627
:104A90002146179A059800F0B3F90544002706E06F
:104AA00001A85A46C05D179990476D1C7F1C474569
:104AB000F6DBE0030CD55B462146179A059800F01B
:104AC0009FF9054404E030205A46179990476D1C21
:104AD0000099481E00900029F5DC08E00298029930
:104AE0005A460078491C0291179990476D1CBAF1FB
:104AF0000001AAF1010AF1DC65E1000009280100CA
:104B00003031323334353637383961626364656643
:104B10000000000030313233343536373839414205
:104B2000434445460000000000F058F90544761C57
:104B3000307800287FF4ECAD19B02846BDE8F08F3E
:104B4000620700D4062709F1070222F0070CFCE8EF
:104B50000223E14603F000485FEA080C02D00FF29E
:104B6000702C0DE05FEA045C02D50FF2682C07E0C0
:104B70005FEAC47C02D00FF2602C01E0AFF2700C4F
:104B80004FF0FF3823F00043CDF850C065280CD01B
:104B900006DC452809D046281DD047283DD13DE0F8
:104BA000662818D067287ED138E00021112F01DB5C
:104BB000112000E0781CCDE9000106A90EA8FFF73E
:104BC000EDFCDDE90F010E9A03910021009207F13F
:104BD000010A04914DE04FF000400097CDE901102B
:104BE00006A90EA8FFF7DAFCDDE90F0203920E9B7F
:104BF00011990022DDF80CA00093049211B9791CE0
:104C000000EB010AB7EB0A0004D4C0F1FF3007F152
:104C1000010A0490AAEB0700019044E0012F00DA9A
:104C200001270021112F01DD112000E03846CDE9D8
:104C3000000106A90EA8FFF7B1FCDDE90F010E9AED
:104C40000391002104910092BA4621070CD40399E4
:104C5000514500DA8A46BAF1010F05DD009AAAF142
:104C60000101515C302908D0B84202DA10F1040F7A
:104C700006DA0121CDE9011015E0AAF10101E9E709
:104C8000002805DC049901440491AAEB000102E02C
:104C9000411C514500DD8A460499401A401C019090
:104CA0004FF000400290200704D40198504501DBEA
:104CB000CDF8048000208DF84F0002980DF14F07C9
:104CC000B0F1004F25D02B200E9002984FF0020833
:104CD00000280CDA404202902D200E9007E00A21B5
:104CE0000298FFF7B2F93031029007F8011DB8F1D0
:104CF0000001A8F10108F2DC02980028EFD1791E2A
:104D00000E980870307800F0200040F0450007F859
:104D1000020D12A8C01B00F107081498007800B11A
:104D2000012000EB0A01019801EBE0710598414474
:104D3000401A401E0590E00306D45B462146179AB0
:104D4000059800F05DF805441498007818B15A46AB
:104D5000179990476D1CE00324D55B462146179AAE
:104D6000059800F04DF805441CE00498002807DB86
:104D7000DDE90301884203DD0098405C179901E0FA
:104D8000179930205A469047049805F10105401CB8
:104D900004900198401E019004D12E205A46179984
:104DA00090476D1CBAF10001AAF1010ADDDC05E0B3
:104DB00017F8010B5A46179990476D1CB8F100017E
:104DC000A8F10108F4DC5B462146179A0598ABE68A
:104DD0002D0000002B000000200000002DE9F04114
:104DE000044600251E461746880404D405E03946CB
:104DF0002020B0476D1C641EF9D52846BDE8F0811F
:104E00002DE9F041044600251E469046C80301D511
:104E1000302700E02027880404D505E041463846C5
:104E2000B0476D1C641EF9D52846BDE8F0810A68BC
:104E3000531C0B6010707047534C415645000000E6
:104E400000000000484330355F534C415645000098
:104E50000000000000000000000000000000000052
:104E60000000000000000000000000000000000042
:104E7000000000000018181818181808000818007A
:104E80000000000000342424240000000000000082
:104E900000000000000016247F2424247E24240027
:104EA0000000000000083E6848681C1612127C10C2
:104EB000100000000061D296740810162949C6003F
:104EC0000000000000003C646438724ACE467F0057
:104ED0000000000000181818180000000000000072
:104EE0000000000000040818103030303010101896
:104EF0000C04000000201008080C0404040C08181E
:104F00001020000000080A341C6A0800000000009D
:104F100000000000000000001818187F1818180082
:104F20000000000000000000000000000018180849
:104F300030000000000000000000003C0000000005
:104F40000000000000000000000000000018180031
:104F500000000000000206040C0808101020204089
:104F60000000000000003C6642475B7342663C0064
:104F700000000000000018784808080808087E00B3
:104F80000000000000003C460606040810207E00D9
:104F90000000000000007C0606043C0202067C00C3
:104FA0000000000000000C1C14246444FF040400F2
:104FB0000000000000007E6060607E0202067C004F
:104FC0000000000000001E306048764242623C0053
:104FD0000000000000007E0206040C0818103000DB
:104FE0000000000000003C6242361C6642423C0069
:104FF0000000000000003C664242661A020478008D
:105000000000000000000000181800000018180040
:105010000000000000000000181800000018180828
:10502000300000000000000004183060100C060082
:10503000000000000000000000007E007E00000074
:105040000000000000000000301804060C102000D2
:105050000000000000301C060606181000101000AA
:1050600000000000001C224141DDB5A5A5AF94C0A1
:10507000403C00000000181C342426627E43C1001E
:105080000000000000007C4642467C4242427C0018
:105090000000000000001E204040404040603E00F4
:1050A0000000000000007C46424343434246780033
:1050B0000000000000007E6060607E6060607E0036
:1050C0000000000000007E6060607E606060600044
:1050D0000000000000001E604040CE4242623E00E0
:1050E000000000000000424242427E424242420032
:1050F0000000000000007E181818181818187E000C
:105100000000000000007C0404040404044478004F
:105110000000000000004244485070584C444200D7
:1051200000000000000020202020202020203E0041
:105130000000000000006266675F5B5BC1C1C100E8
:10514000000000000000626272525A4A4E46460059
:105150000000000000003C6243C3C3C343623C0044
:105160000000000000007C4642424678404040007B
:105170000000000000003C6243C3C3C343623C180C
:105180000F00000000007C6662667C6C6466620052
:105190000000000000003E6040601C0602027C002F
:1051A0000000000000007F181818181818181800C0
:1051B00000000000000042424242424242623C0083
:1051C000000000000000C14342622624341C180085
:1051D000000000000000C1C141495B5B76666600CB
:1051E00000000000000043663418181C2466C30049
:1051F000000000000000C14266341C181818180096
:105200000000000000007E02040C181020607E00E8
:1052100000000000001C10101010101010101010D2
:10522000101C000000402020101008080C0406028A
:1052300000000000003C0C0C0C0C0C0C0C0C0C0CBA
:105240000C3C00000000181C24620000000000005C
:10525000000000000000000000000000000000004E
:1052600000FF00000020100000000000000000000F
:1052700000000000000000003C06023E42467A00AA
:1052800000000000004040405C62424242427C001C
:1052900000000000000000001E20604060203E0072
:1052A00000000000000202023E62424242663A00F2
:1052B00000000000000000003C62427E40603E00B2
:1052C00000000000000F1810107E101010101000C9
:1052D00000000000000000003F66426658403E4368
:1052E000423C0000004040405C6242424242420078
:1052F00000000000001818007808080808087E0060
:105300000000000000040C007C04040404040404F5
:105310000C78000000606060626C78706864620005
:1053200000000000007808080808080808087E0047
:105330000000000000000000764B4B4B4B4B4B0035
:1053400000000000000000005C6242424242420055
:1053500000000000000000003C62424342623C004A
:1053600000000000000000005C62424242427C40BB
:1053700040400000000000003E62424242663A02A5
:1053800002020000000000006E7263606060600056
:1053900000000000000000003E20203C06027C00CF
:1053A0000000000000001010FE10101010101E0071
:1053B00000000000000000004242424242663A0003
:1053C000000000000000000043426624341818006A
:1053D0000000000000000000C1C15B5A5E6666006C
:1053E000000000000000000062261C181C2662005D
:1053F000000000000000000043426624341C18181E
:1054000030E00000000000007E060C1810207E0036
:1054100000000000000E1810101030701010101056
:10542000180E0000080808080808080808080808F6
:10543000080800000030180808080C0E08080808C2
:1054400018300000000000000000714B0600000052
:10545000000000000000000000000000000000004C
:10546000000000000000000000000000000000003C
:10547000000000000000000000000000000000002C
:105480000000000000000000000000000380018018
:105490000180018001800180018001800180018004
:1054A0000000000003C003C0000000000000000076
:1054B0000000000000000000000000000E700E70F0
:1054C0000E700C3000000000000000000000000022
:1054D00000000000000000000000000000000000CC
:1054E000000000000000000000000000000006189E
:1054F000063806307FFE0C300C300C300C307FFE4E
:105500000C601C60186018600000000000000000C3
:105510000000000000000000000000C000C00FF804
:105520003CC831C031803D801F8003F001F8031C6E
:10553000030C031C3FF83FE00700060000000000DA
:10554000000000000000000000001C007E0E630C44
:10555000631863307E6000C001800300077C0EE6A4
:105560001CC618C630C6607C0000000000000000A9
:105570000000000000000000000000000FE01CF030
:10558000387038701C601FC00F003F8C71CC60EC0D
:10559000607C70383CFC1FCE000000000000000062
:1055A00000000000000000000000000003C00180B7
:1055B00001800180000000000000000000000000E9
:1055C00000000000000000000000000000000000DB
:1055D00000000000000000000000003000E001C0FA
:1055E000018003000700060006000E000E000E00FA
:1055F0000E00060007000300038001C000E0003039
:10560000000000000000000000000C000600038005
:10561000018001C000E00060006000700070007058
:105620000060006000E000C00180038006000C0004
:105630000000000000000000000000000180118850
:105640001DB803C007E03DBC0188018000000000D8
:10565000000000000000000000000000000000004A
:10566000000000000000000000000000000000003A
:105670000000018001800180018001807FFE0180A7
:105680000180018001800000000000000000000097
:10569000000000000000000000000000000000000A
:1056A00000000000000000000000000000000000FA
:1056B000000003C003C001C001C003801F00000040
:1056C00000000000000000000000000000000000DA
:1056D0000000000000000000000000000FF00000CB
:1056E00000000000000000000000000000000000BA
:1056F00000000000000000000000000000000000AA
:105700000000000000000000000000000000000099
:10571000000003C003C003C0000000000000000040
:105720000000000000000000000000000018003829
:105730000030006000E000C001C0018003000300F1
:1057400006000E000C001C001800300000000000D5
:1057500000000000000000000000000001800FF0C9
:105760001C38381C301C707E70EE738E7E0E7C0CE4
:10577000300C381C1E780FE0000000000000000014
:10578000000000000000000000000000000007C052
:105790001FC039C001C001C001C001C001C001C0AB
:1057A00001C001C03FFC3FFC000000000000000001
:1057B00000000000000000000000000003801FF057
:1057C00018380038001800380038007001E00380F5
:1057D00007001C003FFC3FFC000000000000000030
:1057E00000000000000000000000000007801FF023
:1057F000003800380038003007E007F00038001C9F
:10580000001C001820F83FE000000000000000002D
:10581000000000000000000000000000000000F098
:1058200001B0033007300E301C30383070307FFE4E
:105830007FFE00300030003000000000000000005B
:1058400000000000000000000000000000001FF841
:1058500018001800180018001FE000F8001C001CB9
:10586000001C003800F01FC0000000000000000015
:10587000000000000000000000000000000003F82D
:105880000F001C001800300037F83C3C300C300C86
:10589000380C381C1E380FF000000000000000001B
:1058A00000000000000000000000000000003FFCBD
:1058B000001C001800380070006000E001C001808A
:1058C0000380070006000E0000000000000000003A
:1058D00000000000000000000000000003C01FF8EE
:1058E000381C381C381C1C380FF007F01C78381C8A
:1058F000300C381C3C380FF00000000000000000A5
:1059000000000000000000000000000003801FF005
:105910003838301C701C700C380C1FFC0FCC001C6D
:10592000001800701FE01F80000000000000000051
:105930000000000000000000000000000000000067
:105940000000000003C003C0018000000000000050
:10595000000003C003C003C00000000000000000FE
:105960000000000000000000000000000000000037
:105970000000000003C003C0018000000000000020
:10598000000003C003C001C001C003800F0000007D
:105990000000000000000000000000000000000007
:1059A0000000003800F001C007001E0038000E00A3
:1059B000078001C0007000300000000000000000FF
:1059C00000000000000000000000000000000000D7
:1059D00000000000000000003FFC000000003FFC51
:1059E0003FFC00000000000000000000000000007C
:1059F00000000000000000000000000000000000A7
:105A000000001C000F00038001E00078001C007003
:105A100001E003800E000C00000000000000000008
:105A20000000000000000000000000000FC000F0B7
:105A3000003800380038003803F00380030003000A
:105A40000000000007800780000000000000000048
:105A50000000000000000000000000E007F80C0C4F
:105A600018063006700363F36633C673CC63CC62EA
:105A7000CC66CCE6C7FCE0006000700038101FF078
:105A8000000000000000000000000000000003C053
:105A900007E006E00E700E700C301C3818183FFC42
:105AA0003FFC700E600EE0070000000000000000E8
:105AB00000000000000000000000000000003FF0B7
:105AC0003838381C381C38383FF03FF8381C380C50
:105AD000380C381C3FF83FE00000000000000000D8
